{
  "contractName": "Lottery",
  "abi": [
    {
      "inputs": [],
      "stateMutability": "nonpayable",
      "type": "constructor"
    },
    {
      "inputs": [
        {
          "internalType": "uint256",
          "name": "",
          "type": "uint256"
        }
      ],
      "name": "participants",
      "outputs": [
        {
          "internalType": "address payable",
          "name": "",
          "type": "address"
        }
      ],
      "stateMutability": "view",
      "type": "function",
      "constant": true
    },
    {
      "inputs": [],
      "name": "winner",
      "outputs": [
        {
          "internalType": "address payable",
          "name": "",
          "type": "address"
        }
      ],
      "stateMutability": "view",
      "type": "function",
      "constant": true
    },
    {
      "stateMutability": "payable",
      "type": "receive",
      "payable": true
    },
    {
      "inputs": [],
      "name": "getBalance",
      "outputs": [
        {
          "internalType": "uint256",
          "name": "",
          "type": "uint256"
        }
      ],
      "stateMutability": "view",
      "type": "function",
      "constant": true
    },
    {
      "inputs": [],
      "name": "getWinner",
      "outputs": [],
      "stateMutability": "nonpayable",
      "type": "function"
    },
    {
      "inputs": [],
      "name": "allParticipents",
      "outputs": [
        {
          "internalType": "address payable[]",
          "name": "",
          "type": "address[]"
        }
      ],
      "stateMutability": "view",
      "type": "function",
      "constant": true
    }
  ],
  "bytecode": "0x608060405234801561001057600080fd5b50336000806101000a81548173ffffffffffffffffffffffffffffffffffffffff021916908373ffffffffffffffffffffffffffffffffffffffff160217905550610bb9806100606000396000f3fe60806040526004361061004e5760003560e01c806312065fe01461010757806335c1d349146101325780638e7ea5b21461016f578063d7a81f1114610186578063dfbf53ae146101b157610102565b3661010257670de0b6b3a7640000341461009d576040517f08c379a0000000000000000000000000000000000000000000000000000000008152600401610094906106e9565b60405180910390fd5b6001339080600181540180825580915050600190039060005260206000200160009091909190916101000a81548173ffffffffffffffffffffffffffffffffffffffff021916908373ffffffffffffffffffffffffffffffffffffffff160217905550005b600080fd5b34801561011357600080fd5b5061011c6101dc565b6040516101299190610722565b60405180910390f35b34801561013e57600080fd5b506101596004803603810190610154919061076e565b610273565b60405161016691906107dc565b60405180910390f35b34801561017b57600080fd5b506101846102b2565b005b34801561019257600080fd5b5061019b6104f7565b6040516101a891906108b5565b60405180910390f35b3480156101bd57600080fd5b506101c6610585565b6040516101d391906107dc565b60405180910390f35b60008060009054906101000a900473ffffffffffffffffffffffffffffffffffffffff1673ffffffffffffffffffffffffffffffffffffffff163373ffffffffffffffffffffffffffffffffffffffff161461026d576040517f08c379a000000000000000000000000000000000000000000000000000000000815260040161026490610923565b60405180910390fd5b47905090565b6001818154811061028357600080fd5b906000526020600020016000915054906101000a900473ffffffffffffffffffffffffffffffffffffffff1681565b60008054906101000a900473ffffffffffffffffffffffffffffffffffffffff1673ffffffffffffffffffffffffffffffffffffffff163373ffffffffffffffffffffffffffffffffffffffff1614610340576040517f08c379a0000000000000000000000000000000000000000000000000000000008152600401610337906109b5565b60405180910390fd5b60036001805490501015610389576040517f08c379a000000000000000000000000000000000000000000000000000000000815260040161038090610a47565b60405180910390fd5b60006001805490506103996105ab565b6103a39190610a96565b9050600181815481106103b9576103b8610ac7565b5b9060005260206000200160009054906101000a900473ffffffffffffffffffffffffffffffffffffffff16600260006101000a81548173ffffffffffffffffffffffffffffffffffffffff021916908373ffffffffffffffffffffffffffffffffffffffff160217905550600260009054906101000a900473ffffffffffffffffffffffffffffffffffffffff1673ffffffffffffffffffffffffffffffffffffffff166108fc6104686101dc565b9081150290604051600060405180830381858888f19350505050158015610493573d6000803e3d6000fd5b50600067ffffffffffffffff8111156104af576104ae610af6565b5b6040519080825280602002602001820160405280156104dd5781602001602082028036833780820191505090505b50600190805190602001906104f39291906105e5565b5050565b6060600180548060200260200160405190810160405280929190818152602001828054801561057b57602002820191906000526020600020905b8160009054906101000a900473ffffffffffffffffffffffffffffffffffffffff1673ffffffffffffffffffffffffffffffffffffffff1681526020019060010190808311610531575b5050505050905090565b600260009054906101000a900473ffffffffffffffffffffffffffffffffffffffff1681565b600042446001805490506040516020016105c793929190610b46565b6040516020818303038152906040528051906020012060001c905090565b82805482825590600052602060002090810192821561065e579160200282015b8281111561065d5782518260006101000a81548173ffffffffffffffffffffffffffffffffffffffff021916908373ffffffffffffffffffffffffffffffffffffffff16021790555091602001919060010190610605565b5b50905061066b919061066f565b5090565b5b80821115610688576000816000905550600101610670565b5090565b600082825260208201905092915050565b7f5469636b65742076616c75652069732031206574686572206f6e6c7900000000600082015250565b60006106d3601c8361068c565b91506106de8261069d565b602082019050919050565b60006020820190508181036000830152610702816106c6565b9050919050565b6000819050919050565b61071c81610709565b82525050565b60006020820190506107376000830184610713565b92915050565b600080fd5b61074b81610709565b811461075657600080fd5b50565b60008135905061076881610742565b92915050565b6000602082840312156107845761078361073d565b5b600061079284828501610759565b91505092915050565b600073ffffffffffffffffffffffffffffffffffffffff82169050919050565b60006107c68261079b565b9050919050565b6107d6816107bb565b82525050565b60006020820190506107f160008301846107cd565b92915050565b600081519050919050565b600082825260208201905092915050565b6000819050602082019050919050565b61082c816107bb565b82525050565b600061083e8383610823565b60208301905092915050565b6000602082019050919050565b6000610862826107f7565b61086c8185610802565b935061087783610813565b8060005b838110156108a857815161088f8882610832565b975061089a8361084a565b92505060018101905061087b565b5085935050505092915050565b600060208201905081810360008301526108cf8184610857565b905092915050565b7f596f7520617265206e6f7420746865206d616e61676572000000000000000000600082015250565b600061090d60178361068c565b9150610918826108d7565b602082019050919050565b6000602082019050818103600083015261093c81610900565b9050919050565b7f4f6e6c79206d616e616765722063616e2061636365737320746869732066756e60008201527f6374696f6e000000000000000000000000000000000000000000000000000000602082015250565b600061099f60258361068c565b91506109aa82610943565b604082019050919050565b600060208201905081810360008301526109ce81610992565b9050919050565b7f4d696e696d756d2033205061727469636970656e74732069732072657175697260008201527f656420746f2070726f6365737300000000000000000000000000000000000000602082015250565b6000610a31602d8361068c565b9150610a3c826109d5565b604082019050919050565b60006020820190508181036000830152610a6081610a24565b9050919050565b7f4e487b7100000000000000000000000000000000000000000000000000000000600052601260045260246000fd5b6000610aa182610709565b9150610aac83610709565b925082610abc57610abb610a67565b5b828206905092915050565b7f4e487b7100000000000000000000000000000000000000000000000000000000600052603260045260246000fd5b7f4e487b7100000000000000000000000000000000000000000000000000000000600052604160045260246000fd5b6000819050919050565b610b40610b3b82610709565b610b25565b82525050565b6000610b528286610b2f565b602082019150610b628285610b2f565b602082019150610b728284610b2f565b60208201915081905094935050505056fea2646970667358221220e7c022e80b2e89116da9f2baa55698f50e7ce9a9f2ca66f3a65e4a789db18ce464736f6c634300080b0033",
  "immutableReferences": {},
  "source": "// SPDX-License-Identifiers: GPL-3.0\r\n\r\npragma solidity >= 0.5.0 < 0.9.0;\r\n\r\n// Need componnets for this project\r\n// 1.create a manager, who access this contract\r\n// 2.create a receive function, to receive participents amount to the contract \r\n//      and store the participents address into an array\r\n// 3.create a function which randomly find the winner from the participents\r\n\r\ncontract Lottery{\r\n    address manager;\r\n    address payable[] public participants; //it will store the participents addresses\r\n    address payable public winner;\r\n\r\n    constructor(){\r\n        manager = msg.sender;\r\n    }\r\n\r\n    receive() payable external{\r\n        require(msg.value == 1 ether, \"Ticket value is 1 ether only\");\r\n        participants.push(payable(msg.sender));\r\n    }\r\n\r\n    function getBalance() public view returns(uint){\r\n        require(msg.sender == manager, \"You are not the manager\");\r\n        return address(this).balance;\r\n    }\r\n\r\n    function random() internal view returns(uint){\r\n         return uint(keccak256(abi.encodePacked(block.timestamp,block.difficulty, participants.length)));\r\n    }\r\n\r\n    function getWinner() public{\r\n        require(msg.sender == manager, \"Only manager can access this function\");\r\n        require(participants.length >= 3, \"Minimum 3 Participents is required to process\");\r\n        uint winnerIndex = random() % participants.length;\r\n        winner = participants[winnerIndex];\r\n        winner.transfer(getBalance());\r\n        participants = new address payable[](0);\r\n    }\r\n\r\n    function allParticipents() public view returns(address payable[] memory){\r\n        return participants;\r\n    }\r\n}\r\n\r\n// contract address: 0x484A0013BCcf079EeaBfe543089625fe309F2396",
  "sourcePath": "C:\\Users\\rupak\\Desktop\\BC_Project\\2-DAPP-Lottery\\web3lab\\contracts\\Lottery.sol",
  "compiler": {
    "name": "solc",
    "version": "0.8.11+commit.d7f03943.Emscripten.clang"
  },
  "schemaVersion": "3.4.11",
  "updatedAt": "2023-03-02T13:26:06.917Z",
  "networkType": "ethereum",
  "devdoc": {
    "kind": "dev",
    "methods": {},
    "version": 1
  },
  "userdoc": {
    "kind": "user",
    "methods": {},
    "version": 1
  }
}